:020000040800F2
:10000000300A0020D1010008672600084D220008B0
:100010006526000809030008C73700080000000033
:10002000000000000000000000000000C5290008DA
:10003000D50300080000000089260008C729000831
:10004000EB010008EB010008EB010008EB010008E0
:10005000EB010008EB010008EB010008EB010008D0
:10006000EB010008EB010008EB010008EB010008C0
:10007000EB010008EB010008EB010008EB010008B0
:10008000EB010008EB010008EB010008C9030008C0
:100090003D03000849030008EB010008EB010008DC
:1000A000EB010008EB010008EB010008EB01000880
:1000B000B92A0008C52A0008EB010008EB01000876
:1000C000EB010008EB010008EB010008EB01000860
:1000D000EB010008EB010008EB010008EB01000850
:1000E000EB010008EB010008EB010008EB01000840
:1000F000EB010008EB010008EB0100080000000024
:10010000EB010008EB010008EB010008EB0100081F
:10011000EB010008EB010008EB010008EB0100080F
:10012000EB010008EB010008EB010008EB010008FF
:10013000EB010008EB010008EB010008EB010008EF
:10014000EB010008EB010008EB010008EB010008DF
:10015000EB010008EB010008EB010008EB010008CF
:10016000EB010008EB010008EB010008EB010008BF
:10017000EB010008EB010008000000000000000097
:10018000EB010008EB010008EB010008EB0100089F
:10019000EB010008EB010008000000000000000077
:1001A0000000000000000000EB010008EB01000867
:1001B000EB010008EB010008EB010008DFF80CD0B0
:1001C00000F090F800480047E9370008300A0020A6
:1001D0000648804706480047FEE7FEE7FEE7FEE7E1
:1001E000FEE7FEE7FEE7FEE7FEE7FEE7752A00080A
:1001F000BD0100082DE9F05F0546002092469B46B0
:1002000088460646814640241BE02846414647462C
:10021000224600F056F853465A46C01A914110D370
:1002200011461846224600F03DF82D1A67EB0108EA
:100230004F4622460120002100F034F817EB000958
:100240004E41201EA4F10104DFDC484631462A4617
:10025000434600F000B830BCBDE8C09F40EA01034F
:100260009B0703D009E008C9121F08C0042AFAD26C
:1002700003E011F8013B00F8013B521EF9D2704730
:10028000D2B201E000F8012B491EFBD270470022D8
:10029000F6E710B513460A4604461946FFF7F0FF85
:1002A000204610BD202A04DB203A00FA02F100208B
:1002B00070479140C2F1200320FA03F319439040A4
:1002C0007047202A04DB203A21FA02F0002170470F
:1002D00021FA02F3D040C2F12002914008431946AE
:1002E00070470000064C074D06E0E06840F001034F
:1002F00094E8070098471034AC42F6D3FFF762FF4A
:10030000C0380008E0380008FEE700000A48002175
:1003100001224161C0E906124FF47853C0E900316F
:100320004FF47E43C0E9023101610E21C0E908218A
:1003300001465C3000F0C6B81C000020014800F007
:10034000ADB9000078000020014800F0A7B9000016
:10035000780000200F4808B54FF4FA7101600021C1
:10036000C16008220261816001750B4805220A23E1
:10037000027041708370C1700171062343718171F5
:10038000C271044902466B4601F1340000F036F8B0
:1003900008BD0000440000200C00002010B5FFF74D
:1003A000B5FF0121074800F017F80221054800F0C9
:1003B00013F81021034800F00FF8BDE81040014881
:1003C00000F068BB78000020014800F067B9000029
:1003D000780000207047704790F82020012A07D04D
:1003E000022A05D0416A41F4802141620120704710
:1003F000006842690A43426100207047F0B590F8F6
:1004000020500468A468012D05D0022D03D0416A54
:1004100041F4802153E014F0406F01D1E5004BD549
:10042000C4F30164022C03D9416A41F4000146E09F
:100430000125A5401D608D684FF4C0739DB1CE6845
:1004400035434E6845EAC605066803EB0417F551C7
:100450004FF4C275076805EB04150E697E51097DDE
:10046000012905D009E00E88CD6845EA4655EBE73D
:1004700001684E5946F480764E511179D2F80550F4
:100480004FF4C67641EA0525016806EB04168D5146
:100490001178D2F801204FF4C47541EA02210268B4
:1004A00005EB04155151006803EB0411425842F06A
:1004B000010242500020F0BD416A41F40011416246
:1004C0000120F0BD10B590F820300268012B07D054
:1004D000022B05D0416A41F480214162012010BD08
:1004E000D2F8000240F00100C2F80002087D00F0DE
:1004F0001F0301209840D2F81C328343C2F81C32FB
:10050000CB69B3B9D2F80C328343C2F80C328C8970
:100510004B6864F31F434C6902EBC404C4F84032D7
:100520000C890B6864F31F434C6902EBC404C4F8E4
:100530004432CB69012B16D1D2F80C320343C2F8F6
:100540000C320C884B6864F31F434C6902EBC40403
:10055000C4F840320C89CB6864F31F434C6902EB4A
:10056000C404C4F844328B69002BD2F804320FD093
:1005700053EA0003C2F804320B69002BD2F814329C
:1005800008D00343C2F81432096A012904D008E0F4
:100590008343EFE78343F5E7D2F81C120143C2F827
:1005A0001C12D2F8000220F00100C2F80002002064
:1005B00010BD704730B590F82040012C05D0022CBA
:1005C00003D0416A41F480215DE00468002955D0E0
:1005D0002469A40754D04FF4D874056804EB0114BF
:1005E0002D5915F00405956005682D594ED0ED087C
:1005F000556005682C59C4F34004D4604FF4DA7494
:10060000056804EB01142D5905F00F051561056807
:100610002D59C5F30725956105682C59240C5461A3
:100620004FF4DC72046802EB0112A4581C700468D9
:10063000A458240A5C700468A458240C9C700468B4
:10064000A258120EDA704FF4DE72046802EB011247
:10065000A4581C710468A458240A5C710468A45846
:10066000240C9C710468A258120EDA71006881B1E2
:10067000016941F020010161002030BDE468A8E774
:10068000416A41F400114162012030BD6D0D1560D9
:10069000AFE7C16841F02001C160EDE72DE9F05FEF
:1006A0000546006800244669D0F804908768D0F8B1
:1006B0000CB0D0F810A0D0F81880F10748D0F90796
:1006C00014D001218160B80703D5284600F00FFA45
:1006D0000CE0780702D54FF4006407E0380702D534
:1006E0004FF4805402E0284600F000FAF80516D5D1
:1006F00029684FF480708860B80503D5284600F05B
:10070000F8F90CE0780502D544F4005407E0380508
:1007100002D544F4804402E0284600F0E9F9F803E9
:1007200016D529684FF480308860B80303D5284671
:1007300000F0E1F90CE0780302D544F4004407E04E
:10074000380302D544F4803402E0284600F0D2F9A0
:10075000300707D55FEACB6004D52968102044F440
:100760000074C86070074FF0080707D55FEA0B7088
:1007700004D52868C760284600F068F9B00706D598
:100780002868C068800702D0284600F061F970062A
:1007900007D55FEACA6004D52968102044F4806454
:1007A0000861B00607D55FEA0A7004D528680761BA
:1007B000284600F06BF9F00606D528680069800726
:1007C00002D0284600F063F9B00308D55FEAC9609B
:1007D00005D5296810204860284600F059F9F00333
:1007E00007D55FEA097004D528684760284600F0FD
:1007F00083F9300446D55FEA497040D5F00504D549
:100800005FEAC87001D044F00104B00504D55FEA86
:10081000887001D544F00204700504D55FEA487081
:1008200001D544F00404300529D518F0700F26D006
:1008300008F07000402815D006DC102809D02028C8
:100840000AD0302816D10AE050280ED0602811D1E5
:100850000EE044F008040DE044F010040AE044F017
:10086000200407E044F0400404E044F0800401E088
:1008700044F480742868816921F0700181612968DD
:1008800004204860002C05D0686A2043686228462E
:10089000FFF78FFE00F000B830BCBDE8C09F70B518
:1008A000040003D094F8200010B104E0012070BDD2
:1008B000204600F081F82068016821F00201016003
:1008C00000F012FA0546052604E000F00DFA401B80
:1008D0000A2811D8206840688007F6D4206801688B
:1008E00041F00101016000F0FFF905460BE000F066
:1008F000FBF9401B0A2806D9606A40F400306062A8
:1009000084F82060D2E720684068C007EFD0207EDE
:100910000128206801683DD021F080010160607EDF
:1009200001282068016838D021F040010160A07ED4
:1009300001282068016833D021F020010160E07EA9
:100940000128206801682ED041F010010160207F4D
:1009500001282068016829D021F008010160607F2A
:1009600001282068016824D021F004010160D4E945
:1009700002010843D4E90412114308436168491E87
:1009800008432168C86100206062012084F82000CB
:10099000002070BD41F08001C0E741F04001C5E793
:1009A00041F02001CAE721F01001CFE741F0080132
:1009B000D4E741F00401D9E710B586B0044614210C
:1009C0006846FFF764FC1E492068884235D11D48FF
:1009D000816D41F000718165816D01F000710591BB
:1009E000C16C41F00801C164C06C022100F0080034
:1009F00005900320CDE900010021CDE90210092076
:100A000004906946104800F087F800221146132030
:100A100000F0C2F9132000F0B3F9002211461420AF
:100A200000F0BAF9142000F0ABF9002211461520AD
:100A300000F0B2F9152000F0A3F906B010BD0000D7
:100A40000064004000100240000C004870470000A5
:100A50000B4A10B5094B002102F11C00FFF7AAFD5B
:100A600006480078062807D14FF48041054800F079
:100A700032F905490120087010BD00000400002073
:100A80005C00002000040048000000207047704710
:100A90007047000070B5044690F82000012804D08B
:100AA000606A40F40020606218E0022084F82000B0
:100AB0002068016821F00101016000F015F9054688
:100AC0000EE000BF00F010F9401B0A2808D9606A48
:100AD00040F400306062052084F82000012070BDE1
:100AE00020684068C007EDD1606270BD70477047F4
:100AF0007047704770477047704770B5044600F004
:100B0000F3F80546601C00D0641C00F0EDF8401BB3
:100B1000A042FAD370BD00002DE9F84FDFF888B18C
:100B200000234FF0010C4FF0030A4FF00F090BF1B7
:100B3000040EB1E00CFA03F632406FD04C68022C80
:100B400001D0122C11D1DC0800EB84073C6A5D0750
:100B5000ED0E09FA05F824EA0804D1F8108008FA25
:100B600005F848EA0408C7F8208007685D0091F896
:100B700004800AFA05F408F00308A74308FA05F808
:100B800048EA0708C0F800804F68012F05D0022FFF
:100B900003D0112F01D0122F10D1D0F80880CF68C8
:100BA00028EA0408AF4047EA080787604768B74368
:100BB0000E79C6F300169E403E434660C668A643C3
:100BC0008C68AC403443C4604C68E40063D5374C57
:100BD000256E45F001052566246E23F0030504F01B
:100BE00001040094324C2F19BD689C07260F09FAA6
:100BF00006F4A543B0F1904F04D02E4CA04203D18F
:100C0000012421E000241FE02B4CA04201D102244A
:100C10001AE02A4CA04202D1032415E03BE0284C04
:100C2000A04201D104240FE0264CA04201D10524AA
:100C30000AE0254CA04201D1062405E0234CA04245
:100C400001D1072400E00824B4402C43BC60DBF849
:100C500000405D464E689443F60300D514432C6073
:100C6000DEF8004075464E689443B60300D5144341
:100C70002C600D4D08352C684E689443F60200D563
:100C800014432C60084D0C352C684E689443B60212
:100C900000D514432C605B1C0A6832FA03F47FF41D
:100CA00049AF00F015B800000004014000100240F8
:100CB000000001400004004800080048000C004803
:100CC000001000480014004800180048001C0048AC
:100CD00018BCBDE8E08F42694A40426170470AB1E2
:100CE0008161704781627047014800687047000069
:100CF0001400002002480168491C01607047000090
:100D00001400002010B50024032000F065F8002036
:100D100000F008F808B1012401E000F01BF82046BB
:100D200010BD000070B5054609484FF47A710024E3
:100D30000068B0FBF1F000F06DFF08B1012404E0A1
:100D400000222946501E00F027F8204670BD000002
:100D500018000020094808B5016E41F00101016644
:100D6000016E01F001010091816D41F080518165BA
:100D7000806D00F08050009008BD0000001002401F
:100D800000F01F02012191404009800000F1E020A5
:100D9000C0F8001170470000F0B40E4B1B680C4601
:100DA000C3F30223C3F10705042D00D90425191D3F
:100DB000072901D2002300E0DB1E012606FA05F117
:100DC000491E214099409E40761E16403143F0BC9A
:100DD00001F04ABC0CED00E0064900F0070208688B
:100DE0004FF6FF03184040EA0220034A1043086010
:100DF000704700000CED00E00000FA0501680122D8
:100E0000C0F80024886B40F40030886300207047ED
:100E100001220168C0F8FC23002280F8F4238869CD
:100E200040F000608861486D024A10434865002028
:100E30007047000003000010F0B58BB0040004D030
:100E400094F8BD03002518B107E001200BB0F0BDF8
:100E500084F8BC53204600F05BF8032084F8BD03FF
:100E6000206802F071FC04F1100128220F46684648
:100E7000FFF7F4F994E80F0002F078FB00212068F6
:100E800002F08AFC00200126C0EBC00104EB8101C6
:100E900081F83D6001F83C0FC880CD708D60401C2A
:100EA000CD60C0B24D610F28EED30020C0EBC00171
:100EB00004EB810181F8FD5181F8FC0181F8FF51BB
:100EC000C1F80452401CC1F80852C0B2C1F8105217
:100ED0000F28EBD3282239466846FFF7BFF994E87C
:100EE0000F0002F095FB84F8385084F8BD63606A07
:100EF000012802D12046FFF78BFFA06A012802D10A
:100F00002046FFF77BFF206802F076FB00209DE77C
:100F100070B586B0044614216846FFF7B8F920681A
:100F2000B0F1A04F3AD1204CE06C40F00100E064F9
:100F3000E06C002500F0010005904FF4E8500090AF
:100F40000220CDE90105032003900A204FF09046CE
:100F5000049069463046FFF7DFFD6015CDE90005D6
:100F6000694630460295FFF7D7FDE06C40F48050AB
:100F7000E064E06C00F480500590A06DC0000FD4D8
:100F8000A06D40F08050A065A06D00F080500590ED
:100F900000F072F8A06D20F08050A06506B070BD22
:100FA00000F06AF8FAE70000001002402B492C4BD1
:100FB0000A6832214A432B4940B1B0F5007F0868E6
:100FC00029D020F4C06040F480602CE00868C0F3B1
:100FD0004120022804D051F8800F20F4807022E0D4
:100FE000D1F8800020F48070C1F88000086820F4F7
:100FF000C06040F400700860B2FBF3F0401C00E0F9
:10100000401E4A69520501D50028F9D148694005BA
:101010000AD503207047C0F34120022806D051F8BA
:10102000800F40F48070086000207047D1F8800085
:1010300040F48070C1F88000086820F4C06040F47B
:1010400000700860B2FBF3F0401C00E0401E4A69EB
:101050005205DBD50028F9D1D8E7000018000020A0
:1010600040420F00007000400248416841F40071A6
:1010700041607047007000400248416841F480615F
:10108000416070470070004008480168C1F3412189
:10109000022906D0D0F88000C00505D54FF40070B5
:1010A00070474FF480607047002070470070004028
:1010B0000248016841F4807101607047007000408F
:1010C0000248016841F004010160704700100240CD
:1010D0002DE9F84F0446002700883E46010504F13B
:1010E0002008FE4D1ED5E06E40280AD003DC68B112
:1010F000202804D10FE0602821D080281FD00127AC
:101100000FE0E86840F48030E86018E00021201D1E
:1011100001F0BCFA03E00021404601F04BFB070060
:101120000DD03E462088C0042BD5206FB0F5007F3F
:1011300016D00DDCC8B1B0F5807F0FD11AE0D5F81C
:101140009C00E16E20F0E0000843C5F89C00E9E750
:10115000B0F5407F13D0B0F5806F10D001270FE0BD
:10116000E86840F48030E86009E00021201D01F0CB
:101170008DFA03E00021404601F01CFB0746F7B161
:101180003E46206880033AD5A86D4FF00008C000A5
:1011900009D4A86D40F08050A865A86D4FF00108F3
:1011A00000F080500090DFF838A3DAF8001041F426
:1011B0008071CAF80010FFF797FD814610E0D5F85E
:1011C0009C00216F20F4E0600843C5F89C00D8E73C
:1011D000FFF78AFDA0EB0900022801D9032705E0EB
:1011E000DAF80000C005F3D5002F7CD04FEA0706DF
:1011F000B8F1000F03D0A86D20F08050A8652078CA
:10120000C00707D0D5F88800E16B20F00300084341
:10121000C5F888002078800707D5D5F88800216CAC
:1012200020F00C000843C5F888002078400707D557
:10123000D5F88800616C20F030000843C5F88800BC
:101240002078000707D5D5F88800A16C20F0C000F1
:101250000843C5F888002078C00607D5D5F888006F
:10126000E16C20F440700843C5F8880020788006BF
:1012700007D5D5F88800216D20F440600843C5F8F3
:1012800088002088800507D5D5F88800616E20F495
:1012900040200843C5F888002088400507D5D5F8C8
:1012A0008800A16E20F440100843C5F8880020781B
:1012B000400607D5D5F88800616D20F440500843FA
:1012C000C5F888002078000607D5D5F88800A16DFC
:1012D00020F440400843C5F888002088C00509D59F
:1012E000D5F8880000E027E0E16D20F440300843A5
:1012F000C5F888002068C00207D5D5F89C00216E8B
:1013000020F003000843C5F89C0020884FF00067D8
:1013100080044FF0806850D5D5F88800616F20F0C8
:1013200040600843C5F88800606FB8423DD1E86866
:1013300040F48010E86040E0D5F8900010F4407070
:1013400015D0D4F89010814211D0D5F89000D5F87E
:10135000901020F4407041F48031C5F89010D5F819
:10136000901021F48031C5F89010C5F89000C007A6
:1013700011D0FFF7B9FC074641F2883907E000BFFA
:10138000FFF7B2FCC11B494501D9032630E7D5F868
:1013900090008007F4D5D5F89000D4F8901020F490
:1013A00040700843C5F8900022E7404505D101216F
:1013B000201D01F06BF900B10646206800032DD511
:1013C000A06F4FF480418842D5F89C0004D140F4CE
:1013D0008040C5F89C000BE020F48040C5F89C00DC
:1013E000D5F88800A26F20F040601043C5F888004F
:1013F000A06FB84203D1E86840F4801004E088424E
:1014000004D1E86840F48030E86007E0404505D149
:101410000121201D01F03AF900B106462068400381
:1014200017D5D5F88800E16F20F040600843C5F873
:101430008800E06FB84204D1E86840F48010E860AA
:1014400007E0404505D10121201D01F01FF900B141
:1014500006462088400413D5D5F88800D4F88010BB
:1014600020F040500843C5F88800D4F88000B0F15F
:10147000805F05D10221201D01F008F900B1064668
:101480002068C00308D5D5F89C00D4F8841020F05B
:1014900004000843C5F89C002068800208D5D5F8F0
:1014A0009C00D4F8881020F018000843C5F89C0070
:1014B0002068C00110D5D5F89C0054F88C1F20F48A
:1014C00040100843C5F89C002068B0F5001F03D108
:1014D000E86840F48010E860304603E00010024005
:1014E0000070004000F000B818BCBDE8E08F0000BC
:1014F0002DE9F0470E4605004FF000077ED0DFF8DB
:101500005881D8F8000000F00F00B0420CD2D8F893
:10151000001021F00F013143C8F80010D8F8000086
:1015200000F00F00B04271D128784C4CC0074BD06E
:101530006868DFF82C9103281ED002282ED00028DE
:1015400020682ED04005002860DA00F0B3F8484546
:1015500006D9A06820F0F00040F08000A06080274D
:10156000A068696820F003000843A060FFF7BCFB97
:10157000814641F2883A20E02068800146D501F09A
:10158000ADF94845ECD9A06810F0F00FE1D028780B
:101590008007E5D5A8680028DBD0E1E72068800354
:1015A000D1E78007CFE700BFFFF79EFBA0EB090163
:1015B000514502D90320BDE8F087A068696800F0B2
:1015C0000C00B0EB810FEFD12878800705D5A0681B
:1015D000A96820F0F000084304E0802F03D1A06840
:1015E00020F0F000A060D8F80010404601F00F0194
:1015F000B1420DD9016821F00F0100E006E031434E
:101600000160006800F00F00B04201D00120D2E775
:101610002878400705D5A068E96820F4E060084311
:10162000A0602878000706D5A068296920F46050DA
:1016300040EAC100A06000F03DF8A168094AC1F38A
:101640000311515C01F01F01C84007490860BDE863
:10165000F0470020FFF766BB002002400010024068
:1016600000B4C40478380008180000200548064972
:1016700000688968054AC1F30221515C01F01F012D
:10168000C84070471800002000100240B838000819
:101690000548064900688968054AC1F3C221515CC2
:1016A00001F01F01C84070471800002000100240E0
:1016B000B838000870B52549002318468A68CC68F8
:1016C00012F00C0204F00306214C4FEA640509D025
:1016D0000C2A05D0042A26D0082A00D1284670BD3D
:1016E000012E10D10B681B0704D4D1F89430C3F33A
:1016F000032302E00B68C3F30313164E56F823309E
:101700007AB10C2AEBD1C86800F00302C868C0F3B4
:101710000310401C022A08D0032A09D0B3FBF0F0C2
:1017200008E0184670BD204670BDB4FBF0F001E043
:10173000B5FBF0F0CA68C968C2F306225043C1F392
:101740004161491C4900B0FBF1F070BD001002403E
:101750000024F400883800082DE9F84305007CD007
:10176000F84CA06800F00C06E06800F00307287849
:10177000C00662D576B10C2E01D1012F0AD0A8691E
:101780000028206878D040F001002060FFF7ACFA14
:10179000804659E02068800702D5A8690028DED07D
:1017A000296A2068000703D5206800F0F00004E0F3
:1017B000D4F89400F02202EA1010814216D90846AB
:1017C00001F0C6F8002848D1206840F008002060E9
:1017D0002068296A20F0F000084320606068E96909
:1017E00020F47F4040EA0120606015E0206840F06E
:1017F000080020602068296A20F0F000084320607B
:101800006068E96920F47F4040EA01206060286A4E
:1018100001F09EF80028D6D1FFF74CFFA168CA4A14
:10182000C1F30311515C01F01F01C840C7490860B2
:101830000020FFF777FA00287ED12EE0FFF754FA58
:10184000A0EB0800022878D820688007F6D5206829
:1018500040F008002060206801E0BBE00CE0296A4D
:1018600020F0F000084320606068E96920F47F40C0
:1018700040EA0120606010E020F001002060FFF7E6
:1018800033FA804606E000BFFFF72EFAA0EB08000F
:101890000228D8D820688007F6D42878C00740D01E
:1018A000082E18D00C2E01D1032F14D06868B0F583
:1018B000803F17D0B0F5A02F206817D020F48030DB
:1018C0002060206820F4802020606868E0B1FFF785
:1018D0000BFA804614E02068800322D5686800284F
:1018E00078D01EE0206840F48030EDE740F480209E
:1018F0002060F7E7FFF7F8F9A0EB08006428A2D80A
:1019000020688003F6D50CE0FFF7EEF9804605E08D
:10191000FFF7EAF9A0EB0800642894D82068800358
:10192000F6D4287880073BD5042E11D00C2E01D197
:10193000022F0DD0E86801E05EE1B8E000282068E1
:101940001ED040F480702060FFF7CEF907460CE00F
:10195000206840050CD5E8680028C1D008E000BF29
:10196000FFF7C2F9C01B022893D820684005F7D5BD
:101970006068297C20F0FE4040EA016060600FE072
:1019800020F480702060FFF7AFF9074605E000BF44
:10199000FFF7AAF9C01B0228B1D820684005F7D488
:1019A0002878000729D568690028D4F8940012D057
:1019B00040F00100C4F89400FFF796F9074604E0F0
:1019C000FFF792F9C01B022871D8D4F89400800761
:1019D000F6D512E017E120F00100C4F89400FFF7FB
:1019E00083F9074605E000BFFFF77EF9C01B022818
:1019F0005DD8D4F894008007F6D42878400766D5DF
:101A0000A06D0027C00008D4A06D40F08050A065F4
:101A1000A06D012700F0805000904D480168C90575
:101A200012D40168814641F480710160FFF75CF9CE
:101A3000804605E0FFF758F9A0EB0800022836D8E9
:101A4000D9F80000C005F5D5A868012816D00528EA
:101A5000D4F8900017D020F00100C4F89000D4F81A
:101A6000900020F0040000BFC4F89000A86841F284
:101A70008839C0B1FFF738F980460FE0D4F89000FC
:101A800040F00100F0E740F00400C4F89000F5E7F2
:101A9000FFF72AF9A0EB0801494508D8D4F89000CF
:101AA0008007F5D50EE0FFF71FF9804606E07CE0E1
:101AB000FFF71AF9A0EB0801494576D8D4F8900051
:101AC0008007F5D41FB1A06D20F08050A065287864
:101AD000800628D5686A0028D4F8980012D040F013
:101AE0000100C4F89800FFF7FFF8074605E000BFC3
:101AF000FFF7FAF8C01B02287DD8D4F898008007B9
:101B0000F6D510E020F00100C4F89800FFF7ECF8DB
:101B1000074604E0FFF7E8F8C01B02286BD8D4F8AA
:101B200098008007F6D4A86AF0B30C2E6BD0022878
:101B3000206820F0807020600CD0206810F0205FBA
:101B400047D04AE000100240783800081800002012
:101B500000700040FFF7C8F8064604E0FFF7C4F83D
:101B6000801B022847D820688001F7D4286B55F8DD
:101B70002C1F000110380843298A244A490802EB27
:101B80004151AA6841EA02210843297D4FF07E4273
:101B9000490802EB41610843297B40EAC160E060EB
:101BA000206840F0807001E02BE024E02060E068D5
:101BB00040F08070E060FFF797F8054605E000BF51
:101BC000FFF792F8401B022815D820688001F7D54E
:101BD00017E0E06820F00300E060E0680C4908408E
:101BE000E060FFF781F8054608E000BFFFF77CF8EA
:101BF000401B022802D90320BDE8F8832068800139
:101C0000F4D40020F8E70120F6E700000000E0FF30
:101C1000FFFFEEFE10B5401EB0F1807F01D3012022
:101C200010BD4FF0E02460610F21601700F01CFD33
:101C30000020A06107202061002010BD7047704780
:101C40007047000070B590F83C20012A24D0012490
:101C500080F83C40022280F83D2002685368956875
:101C60000E4EB24202D00E4EB24203D123F47006A1
:101C70004B68334323F070060B688968334325F0C3
:101C80008005294353600268916080F83D4000213F
:101C900080F83C10084670BD022070BD002C014049
:101CA0000034014010B5040003D094F83D0010B199
:101CB00007E0012010BD002084F83C00204600F021
:101CC0000DF8022084F83D00211D206800F000FF7F
:101CD000012084F83D00002010BD000008B5016817
:101CE0001448B1F1804F14D0134A914220D1816D34
:101CF00041F002018165806D002200F00200009039
:101D000011461D20FFF748F81D20BDE80840FFF7E9
:101D100037B8816D41F001018165806D002200F0CE
:101D20000100009011461C20FFF736F81C20ECE75C
:101D300008BD000000100240000400400168CA68AD
:101D400042F00102CA600068826807490A40062A18
:101D500008D082680A40B2F5803F03D0016841F0A4
:101D600001010160002070470700010070B50446C2
:101D700090F83C00012817D0012584F83C5002203F
:101D800084F83D0020688268324E324022F47F425F
:101D900082600868502839D00DDC202855D005DC39
:101DA00098B3102843D150E0022070BD30284CD0A9
:101DB00040283CD141E0602830D070280CD0B0F5EC
:101DC000805F03D0B0F5005F31D112E020688168F8
:101DD000204A7032114016E0CB68D1E90121206819
:101DE00000F0D6FE21688868304040F077008860B7
:101DF0001DE0CB68D1E90121206800F0C9FE206810
:101E0000816841F48041816011E01EE0CA68496840
:101E1000206800F0CFFE5021206806E0CA684968BB
:101E2000206800F0D8FE6021206800F0BBFE84F836
:101E30003D50002084F83C0070BDCA6849682068A5
:101E400000F0B8FE40212068EFE722680146104606
:101E5000EBE7000088FFFEFF704770B5044600689E
:101E600001694FF00005C943890715D4C168C9430A
:101E7000890711D4E91E016101202077206880695B
:101E80008007204602D0FFF7E7FF04E000F0A7F844
:101E9000204600F0A5F8257720680169C943490765
:101EA00017D4C168C943490713D46FF00401016115
:101EB000022020772068806910F4407F204602D0FD
:101EC000FFF7CAFF04E000F08AF8204600F088F827
:101ED000257720680169C943090716D4C168C94339
:101EE000090712D46FF008010161042020772068EF
:101EF000C0698007204602D0FFF7AEFF04E000F083
:101F00006EF8204600F06CF8257720680169C94317
:101F1000C90617D4C168C943C90613D46FF01001AC
:101F20000161082020772068C06910F4407F2046B6
:101F300002D0FFF791FF04E000F051F8204600F0D6
:101F40004FF8257720680169C943C90708D1C168DE
:101F5000C943C90704D1891E0161204600F042F837
:101F600020680169C943090609D4C168C943090643
:101F700005D46FF0800101612046FFF760FE206804
:101F80000169C943C90509D4C168C943090605D413
:101F90006FF4807101612046FFF750FE20680169EF
:101FA000C943490609D4C168C943490605D46FF03D
:101FB00040010161204600F051F820680169C943E1
:101FC00089060BD4C168C943890607D46FF0200184
:101FD00001612046BDE87040FFF732BE70BD70471A
:101FE0007047000070B518490068096888422AD116
:101FF000164C6088401C80B26080B0F5FA7F22D316
:10200000207801281FD1FEF7A5F9114D4FF400618A
:102010002846FEF760FE4FF480612846FEF75BFE1F
:1020200069010C4D2846FEF756FE4FF480412846C4
:10203000FEF751FE4FF400510748FEF74CFE012019
:1020400020700020608070BDA801002000000020EA
:10205000000400480010004800140048704790F841
:102060007C10012918D0012180F87C10242180F8EF
:102070007D1050F8601B0A680B6823F001030B60A9
:1020800022F000510022426050F8603C196020218B
:1020900041770277104670470220704770B50446BA
:1020A00090F87C0001281DD0012084F87C002420B9
:1020B00084F87D0020680568026822F00102026051
:1020C0002068826822F060620A438260204600F045
:1020D00095FD20680560202084F87D00002084F8AC
:1020E0007C0070BD022070BD70B5044690F87C0085
:1020F00001281DD0012084F87C00242084F87D0074
:1021000020680568026822F0010202602068826887
:1021100022F060420A438260204600F06FFD206892
:102120000560202084F87D00002084F87C0070BDCC
:10213000022070BD10B5040003D094F87D0010B1EA
:1021400007E0012010BD002084F87C00204600F04C
:1021500027F8242084F87D002068016821F001011F
:102160000160204600F012FE0128EBD0A06A10B1F9
:10217000204600F077FD2068416821F490414160DD
:102180002068816821F02A0181602068016841F09F
:10219000010101602046BDE8104000F0C7BD00000D
:1021A00070B586B0044614216846FEF770F8224ADE
:1021B0002168002421480225032691421BD1C16DCC
:1021C00041F00101C165C16D01F001010591C16CD2
:1021D00041F04001C164C06C00F040000590FEF782
:1021E00043FFF001CDE9000502940820CDE903602A
:1021F000694613481CE0134A91421BD1816D41F49A
:1022000080218165816D01F480210591C16C41F0CF
:102210000801C164C06C029400F0080005904FF4FE
:102220004070CDE900050720CDE903606946064806
:10223000FEF772FC06B070BD008000400010024046
:102240000018004800480040000C0048FEE700006D
:102250000F4810B50D4901600421416000214FF481
:1022600030228160C0E903124FF48012426101768E
:1022700041768176C17601774177FEF710FB002821
:1022800003D0BDE81040FEF7A6B810BD00640040C2
:10229000780000202DE9F04F87B014216846FDF743
:1022A000F6FF7148C16C41F01001C164C16C01F0CE
:1022B00010010591C16C41F00401C164C16C01F0D1
:1022C00004010591C16C41F02001C164C16C01F0B1
:1022D00020010591C16C41F08001C164C16C01F025
:1022E00080010591C16C41F00101C164C16C01F034
:1022F00001010591C16C41F00201C164C16C01F0A2
:1023000002010591C16C41F04001C164C16C01F052
:1023100040010591C16C41F00801C164C06C00F03E
:1023200008000590FEF7A0FEDFF840A14FF400562C
:10233000002231465046FEF7D2FCDFF834B14FF4AC
:102340004047002239465846FEF7C9FC4FF49948E9
:10235000002241464748FEF7C2FC002220214648A1
:10236000FEF7BDFC43F6FF700325CDE90005002410
:10237000694602945846FEF7CFFB40480096CDE9E7
:102380000104DFF8FC9069464846FEF7C5FB4DF6B0
:10239000FF70CDE90005694602945046FEF7BCFB8C
:1023A000701ECDE90005694602944846FEF7B4FB6D
:1023B00048F2FF00CDE90005694602944FF09040D5
:1023C000FEF7AAFB4BF27730CDE90005694602948F
:1023D0002848FEF7A1FB00960126CDE90164694675
:1023E00050460394FEF798FB4FF61F60CDE90005B9
:1023F000694602942048FEF78FFB0097CDE90164FF
:10240000694658460394FEF787FBCDF80080CDE976
:102410000164694617480394FEF77EFB4FF6FC40C3
:10242000CDE90005694602941648FEF775FB2020A9
:102430000090CDE9016469460F480394FEF76CFBF8
:102440004020CDE9000469460B480294FEF764FB86
:102450000820CDE90005694602940B48FEF75CFBB5
:1024600007B000F013B8000000100240001400484C
:102470000010004800040048001800480000111037
:1024800000080048000C0048001C004830BCBDE8B3
:10249000C08F0000154810B5134901601449416010
:1024A0004FF08051816000210C22C160C0E904120C
:1024B00081610162416281624166FFF73BFE08B1C2
:1024C000FDF789FF00210948FFF70EFE08B1FDF76F
:1024D00082FF00210548FFF7E1FD002803D0BDE899
:1024E0001040FDF778BF10BD00800040A000002024
:1024F0002433030010B588B00024174800940194D9
:1025000002940394049405944FF080410694016072
:1025100042F20F71C0E901140521C0E9031484617E
:10252000FFF7C0FB08B1FDF756FF4FF48050009055
:1025300069460948FFF71AFC08B1FDF74CFF0494FF
:1025400004A905480694FFF77DFB002801D0FDF79C
:1025500042FF08B010BD0000A801002010B588B0EF
:102560000024174800940194029403940494059461
:1025700012490694016042F20F71C0E9011406216C
:10258000C0E903148461FFF78DFB08B1FDF723FF59
:102590004FF48050009069460948FFF7E7FB08B107
:1025A000FDF719FF049404A905480694FFF74AFBB8
:1025B000002801D0FDF70FFF08B010BD0004004057
:1025C000E8010020184810B5164901604FF4E131C8
:1025D0004160002181600C22C160C0E90412816168
:1025E000C161016241628162FFF7A4FD08B1FDF79C
:1025F000F2FE00210C48FFF777FD08B1FDF7EBFE76
:1026000000210948FFF74AFD08B1FDF7E4FE06483E
:10261000FFF725FD002803D0BDE81040FDF7DBBE25
:1026200010BD000000480040240100200C4810B5F7
:102630004FF0A0410160062141600221816101212A
:102640000022C0E90712C0E90921C0E90B12FEF718
:10265000F3FB002803D0BDE81040FDF7BCBE10BD61
:1026600028020020FEE770470907090E002806DA55
:1026700000F00F0000F1E02080F8141D704700F119
:10268000E02080F800147047704700002DE9F04109
:10269000434C05468846E06800268107286806D036
:1026A000E16801F0030181420FD170B11AE0012805
:1026B00004D0022805D0032807D108E02168890743
:1026C00001E021684905002907DB012664E0216853
:1026D000890302D421684903F5E7E16821F0030189
:1026E0000143E160206820F080602060FEF7FCFA82
:1026F000074604E0FEF7F8FAC01B022843D820681A
:102700000001F7D46FF00F00B8F1000F1BD0B8F143
:10271000010F24D0297D4908420502EB4161AA68D6
:1027200041EA02216A6800EB0210014320691D4A58
:10273000104001432161206840F080602060FEF776
:10274000D3FA074621E0A9682A7B090241EAC2615F
:102750006A6800EB021001432069134AE8E7298AFE
:10276000124A490802EB4151AA6841EA02216A680B
:1027700000EB0210014320690D4AD9E7FEF7B4FAD5
:10278000C01B022801D9032606E020680001F5D508
:102790002069A969084320613046BDE8F081000046
:1027A000001002400F80FFF90F80FF070000E0FFDC
:1027B0000F809FFF2DE9F041434C05468846E068B5
:1027C00000268107286806D0E16801F003018142F4
:1027D0000FD170B11AE0012804D0022805D00328D7
:1027E00007D108E02168890701E02168490500292F
:1027F00007DB012664E02168890302D421684903CC
:10280000F5E7E16821F003010143E160206820F071
:1028100080502060FEF768FA074604E0FEF764FA8D
:10282000C01B022843D820688000F7D46FF00F0047
:10283000B8F1000F1BD0B8F1010F24D0297D490851
:10284000420502EB4161AA6841EA02216A6800EB95
:102850000210014360691D4A104001436161206814
:1028600040F080502060FEF73FFA074621E0A9685B
:102870002A7B090241EAC2616A6800EB0210014347
:102880006069134AE8E7298A124A490802EB415174
:10289000AA6841EA02216A6800EB021001436069FC
:1028A0000D4AD9E7FEF720FAC01B022801D90326FA
:1028B00006E020688000F5D56069A9690843606179
:1028C0003046BDE8F0810000001002400F80FFF9A3
:1028D0000F80FF070000E0FF0F809FFF18480022D5
:1028E000C16801F0030101290DD10168090704D471
:1028F000D0F89410C1F3032102E00168C1F3031181
:10290000104A52F82120C16801F00303C168C1F3E5
:102910000311491C022B02D0032B03D101E00A4A08
:1029200000E00A4AB2FBF1F1C268C068C2F30622B5
:102930005143C0F34160401C4000B1FBF0F07047D0
:1029400000100240883800080024F40000127A00C9
:10295000F8B51A4D06460024A86DC00002D5FEF752
:1029600093FB0DE0A86D40F08050A865A86D00F0C5
:1029700080500090FEF788FBA96D21F08051A96579
:10298000B0F5007F03D0802E06D3022407E0802E0E
:1029900005D9A02EF9D801E0702E00D101240848F5
:1029A000016821F00F0121430160006800F00F0071
:1029B000A04201D00120F8BD0020F8BD0010024067
:1029C000002002407047FEF795B9000070B5BCB01A
:1029D000442125A8FDF75BFC142136A8FDF757FC20
:1029E00094216846FDF753FC4FF40070FEF7DEFAC1
:1029F000FEF75EFB1E4850F8901F21F018010160A1
:102A000014202590602001252D9000262795CDE9E2
:102A10002B560224CDE92F451E20CDE932043195F5
:102A2000349425A83594FEF797FE0F2036900320A6
:102A3000CDE937066002CDE93906022136A8FEF756
:102A400057FD42F2240014960090600611961D90E6
:102A5000019502951820CDE90304E004CDE9064074
:102A600005946846FEF734FBFEF72AFB3CB070BDC8
:102A7000001002400D48016841F4700101600C48EB
:102A8000016841F001010160002181600268094B89
:102A90001A4002608214C260026822F4802202603E
:102AA00081610249C00380390860704788ED00E009
:102AB00000100240FFFFF6EA0148FFF7CEB9000020
:102AC000A80100200148FFF7C8B90000E801002074
:102AD0002DE9F0470268264B264D274E274F284CFC
:102AE0004FF0804A984209D0504507D0A84205D0FF
:102AF000B04203D0B84201D0A04204D122F0700C01
:102B00004A6842EA0C02DFF87CC0DFF87C80DFF81C
:102B10007C9098420FD050450DD0A8420BD0B042C7
:102B200009D0B84207D0A04205D0604503D0404547
:102B300001D0484503D122F44075CA682A434D6943
:102B400022F080022A4302608A68C2620A688262B6
:102B5000984207D0A04205D0604503D0404501D03F
:102B6000484501D10969016301214161BDE8F08750
:102B7000002C01400004004000080040000C004010
:102B80000034014000400140004401400048014041
:102B900010B5846842EA032224F47F440A432243A6
:102BA000826010BD826822F070020A4342F0070181
:102BB0008160704710B5036A046A24F0010404625E
:102BC000846924F0F00444EA021423F00A020A4360
:102BD0008461026210BD10B5036A23F01003036222
:102BE0008369046A23F4704343EA023224F0A003A9
:102BF00043EA01118261016210BD00003FB515A2D8
:102C0000D2E90012CDE9001214A2D2E90012CDE9F6
:102C10000212416EC9B1026891689268C1F34261C3
:102C2000520F1DF80240E406250E02ACA25CB5FB73
:102C3000F2F2A0F86A201DF80120615CD206120EA3
:102C4000B2FBF1F1A0F868103FBD0121A0F86A10B5
:102C5000F8E7000001010103070100000804020475
:102C60000801000090F82810C90706D001684A68DA
:102C7000C36A22F400321A434A6090F82810890788
:102C800006D501684A68036B22F480321A434A6011
:102C900090F82810490706D501684A68436B22F46A
:102CA00080221A434A6090F82810090706D5016867
:102CB0004A68836B22F400421A434A6090F8281055
:102CC000C90606D501688A68C36B22F480521A438C
:102CD0008A6090F82810890606D501688A68036C16
:102CE00022F400521A438A6090F82810490611D540
:102CF00001684A68436C22F480121A434A60416CAE
:102D0000B1F5801F06D101684A68836C22F4C002C5
:102D10001A434A6090F82810090606D501684A68E7
:102D2000C06C22F4002202434A607047F8B50026C6
:102D30000446C0F88060FDF7D7FF054620680068AC
:102D40006FF07E47000708D52B4600224FF4001194
:102D50002046009700F0D7FB60B920680068400764
:102D60000AD52B4600224FF480012046009700F040
:102D7000CAFB08B10320F8BD202084F87D0084F848
:102D80007E0084F87C600020F8BD00002DE9F05F33
:102D90000446016880682369E66918436369102561
:102DA00033431843636E00270343F54A0868F54E22
:102DB00030401843086020684168E36821F44051BE
:102DC000194341602168A069914201D0236A1843E8
:102DD0008B68ED4E334003438B602068C16A636AA1
:102DE00021F00F011943C162E949E84B20688E15B3
:102DF00098420DD1D1F8881011F0030106D00129B5
:102E000059D0022955D0032958D156E0012555E063
:102E1000E04B98420BD1D1F8881011F00C0146D04C
:102E2000042948D0082944D00C2947D145E0DA4B81
:102E300098420BD1D1F8881011F0300137D0102909
:102E400039D0202935D0302938D136E0D34B9842BB
:102E50000BD1D1F8881011F0C00128D040292AD018
:102E6000802926D0C02929D127E0CD4B98420DD109
:102E7000D1F8881011F4407119D0B1421BD0B1F5CE
:102E8000007F16D0B1F5407F18D116E0904215D1E1
:102E9000D1F8881011F4406109D0B1F5806F0AD0E3
:102EA000B1F5006F05D0B1F5406F07D105E0002501
:102EB00004E0022502E0042500E00825DFF8E4A292
:102EC0004FF000094FF4004B90426ED135B1022D06
:102ED00021D0042D51D0082D68D16EE0FEF7C6FB3D
:102EE0004DE0012851D0022851D0032851D00428A8
:102EF00051D0052851D0062851D0072851D0082894
:102F000051D0092853D00A2853D00B2853D03AE087
:102F1000B1FBF0F06CE0606AA8B1012817D002287C
:102F200017D0032817D0042817D0052817D0062853
:102F300017D0072817D0082817D0092817D00A2833
:102F400017D00B2817D00120BAFBF0F050E0022078
:102F5000FAE70420F8E70620F6E70820F4E70A205D
:102F6000F2E70C20F0E71020EEE72020ECE740200D
:102F7000EAE78020E8E73046E6E7FEF79BFB0146FC
:102F8000606A0028ADD10120C2E70220C0E704201A
:102F9000BEE70620BCE70820BAE70A20B8E70C2005
:102FA000B6E71020B4E72020B2E732E142E040204B
:102FB000AEE78020ACE73046AAE7606AA8B10128F6
:102FC00022D0022822D0032822D0042822D005288B
:102FD00022D0062822D0072822D0082822D009286B
:102FE00022D00A2822D00B2822D00120BBFBF0F0EF
:102FF000002820D06168884601EB4101814219D840
:10300000B0EB083F16D817E00220EFE70420EDE709
:103010000620EBE70820E9E70A20E7E70C20E5E7D0
:103020001020E3E72020E1E74020DFE78020DDE714
:103030003046DBE7012710E27DB3022D75D0042D69
:1030400074D0082DF6D1606AA8B101286FD002288B
:103050006ED003286DD004286CD005286BD00628CC
:103060006AD0072869D0082868D0092867D00A28BC
:103070007ED00B2800D0012632464D46002358460C
:103080000021FDF7B7F8090241EA106102024FEA98
:1030900058001018694142463EE0FFE7FEF7E6FAA5
:1030A00084464D4649469AE0012815D0022815D09D
:1030B000032815D0042815D0052815D0062815D0CA
:1030C000072815D0082815D0092815D00A2815D0AA
:1030D0000B2814D0012612E0022610E004260EE090
:1030E00006260CE008260AE00A2608E00C2606E080
:1030F000102604E0202602E0402600E0802632462A
:1031000000236046FDF776F80902626841EA106123
:1031100003025008181869410023FDF76BF8224A92
:10312000A0F5407191426FD984E709E052E05BE07D
:103130005CE05DE05EE05FE060E061E062E064E092
:10314000606AB8B1012831D0022831D0032831D0CB
:10315000042831D0052831D0062831D0072831D0B5
:10316000082831D0092831D00A2831D00B2800E0B6
:103170004DE000D0012632464D46002350467FE701
:1031800000800040F369FFCFFFF4FF1100380140D9
:10319000001002400044004000480040004C004045
:1031A000005000400024F400FFFC0F000226E2E77C
:1031B0000426E0E70626DEE70826DCE70A26DAE74B
:1031C0000C26D8E71026D6E72026D4E74026D2E7FB
:1031D0008026D0E7FEF76EFA4D4649468446606A7F
:1031E00000283FF477AF5FE7022645E7042643E770
:1031F000062641E708263FE70A263DE70C263BE77F
:10320000102639E7202637E725E1402634E78026D7
:1032100032E7E0694FF6EF7858456ED1092D83D239
:10322000DFE805F006093C0580050505830001E798
:10323000FEF71CFA01E0FEF72BFA0146606AA8B11E
:10324000012815D0022815D0032815D0042815D040
:10325000052815D0062815D0072815D0082815D020
:10326000092815D00A2815D00B2814D0012612E001
:10327000022610E004260EE006260CE008260AE0EE
:103280000A2608E00C2606E0102604E0202602E0CC
:10329000402600E08026B1FBF6F01AE0606AA8B193
:1032A00001282BD002282BD003282BD004282BD088
:1032B00005282BD006282BD007282BD008282BD068
:1032C00009282BD00A282BD00B2800D00126BAFBC6
:1032D000F6F04100606801EB5001B1FBF0F080B204
:1032E000A0F110014145A2D84FF6F0710140C0F3A2
:1032F000420001432068C160AFE046E00226E6E7F5
:103300000426E4E70626E2E70826E0E70A26DEE7E9
:103310000C26DCE71026DAE72026D8E74026D6E799
:103320008026D4E7FEF7C6F987E7606AA8B10128CE
:1033300017D0022817D0032817D0042817D0052843
:1033400017D0062817D0072817D0082817D0092823
:1033500017D00A2817D00B2800D00126BBFBF6F0A7
:10336000B7E70226FAE70426F8E70626F6E7082676
:10337000F4E70A26F2E70C26F0E71026EEE720260F
:10338000ECE74026EAE78026E8E7092DBFF4CCAE5B
:10339000DFE805F006093C0583050505860049E6DA
:1033A000FEF764F901E0FEF773F90146606AA8B11F
:1033B000012815D0022815D0032815D0042815D0CF
:1033C000052815D0062815D0072815D0082815D0AF
:1033D000092815D00A2815D00B2814D0012612E090
:1033E000022610E004260EE006260CE008260AE07D
:1033F0000A2608E00C2606E0102604E0202602E05B
:10340000402600E08026B1FBF6F11AE0606AA8B120
:1034100001282ED002282ED003282ED004282ED00A
:1034200005282ED006282ED007282ED008282ED0EA
:1034300009282ED00A282ED00B2800D00126BAFB4E
:10344000F6F1606801EB5001B1FBF0F080B2A0F141
:1034500010014145A3D82168C8600120A4F86A0082
:1034600024F8680F3846C4F80490C4F8089000F0B7
:1034700047B80226E3E70426E1E70626DFE7082649
:10348000DDE70A26DBE70C26D9E71026D7E720265A
:10349000D5E74026D3E78026D1E7FEF70BF984E78E
:1034A000606AA8B1012817D0022817D0032817D0C6
:1034B000042817D0052817D0062817D0072817D0BA
:1034C000082817D0092817D00A2817D00B2800D0B1
:1034D0000126BBFBF6F1B4E70226FAE70426F8E77B
:1034E0000626F6E70826F4E70A26F2E70C26F0E7B8
:1034F0001026EEE72026ECE74026EAE78026E8E7FC
:1035000030BCBDE8C09F2DE9F041984617460E46F5
:103510000446069D1DE0681C1BD02DB1FDF7E4FBA1
:10352000A0EB0800A84214D92068016821F4D071EA
:1035300001602068816821F001018160202084F809
:103540007D0084F87E00002084F87C000320BDE824
:10355000F0812068C06936EA000004D00020B8423B
:10356000D9D00020F3E70120F9E7000010B50446A8
:1035700004990B9801290BD0E06840F04000E0600E
:10358000204600F01DF84FF48030A063002010BDED
:10359000A16B21F48031A163E168084A1140E16028
:1035A000E16821F44011E160012803D1E06840F4B2
:1035B0008010E060204600F003F8E7E7BFFFBDFFA2
:1035C00001220C4902E0521C8A420BD80369002BED
:1035D000F9DA026942F001020261012204E0521CA0
:1035E0008A4201D9032070470369DB07F7D1002025
:1035F00070470000400D030010B5D0F8041841F0EA
:103600000201C0F804180320FDF777FA002010BD6E
:103610002DE9F04304460020DDF82890DDF83870ED
:103620000E46054604EB8001C1F80451401C0F28EA
:10363000F8D3A06B40F400112046A16367B9806BFA
:1036400020F40011A163206840F04001216020684F
:1036500040F0800120462160C0F8005ED0F80018DC
:10366000C0F80018D0F8001841F00301C0F80018A5
:10367000102100F07FF8204600F06CF8C4F81058D4
:10368000C4F81458C4F81C5800204FF000624FF0E2
:1036900090484FF67F3314E004EB4011D1F800C995
:1036A000BCF1000F06DA10B1C1F8008904E0C4F8DB
:1036B000002901E0C1F80059C1F81059C1F80839D2
:1036C000401C8642E8D8002015E000BF04EB401102
:1036D000D1F800CBBCF1000F06DA10B1C1F8008BB5
:1036E00004E0C4F8002B01E0C1F8005BC1F8105BF6
:1036F000C1F8083B401C8642E8D8D4F8100820F4F2
:103700008071C4F81018A5616FF080406061A069F5
:1037100040F01000A061A06909490843A061B9F117
:10372000000F03D0A06940F00800A061012F03D171
:10373000A06904490843A0610020BDE8F0830000AF
:1037400000383C8004000040816821F00101816064
:1037500000207047002110220261054A491C914255
:1037600001D9032070470369DB06F7D400207047B6
:10377000400D03000022202343EA81110161054925
:10378000521C8A4201D90320704703699B06F7D473
:1037900000207047400D030010B5C26822F0C042FF
:1037A000C260012902D029B1012010BDC16841F0D9
:1037B000005102E0C16841F08041C1603220FDF754
:1037C0009CF9002010BDFEE702E008C8121F08C1E6
:1037D000002AFAD170477047002001E001C1121F92
:1037E000002AFBD170470000FDF78CFAFFF7EEF8D6
:1037F000FEF750FDFEF72CFDFEF74CFEFEF7E2FE55
:10380000FEF714FFFEF776FEFEF7A8FE1648FEF759
:1038100095FAFCF7C3FD154C0122D1022046FDF7B5
:103820005EFA00224FF480612046FDF758FA104DF1
:103830000122D1032846FDF752FA4FF480460022B8
:1038400031462846FDF74BFA012251030948FDF79E
:1038500046FA002231462046FDF741FAFA20FDF7EC
:103860004CF9FCF777FDFEE7A801002000040048B2
:103870000010004800140048000000000000000094
:103880000102030406070809A0860100400D030099
:10389000801A060000350C0040420F0080841E0094
:1038A00000093D0000127A000024F40000366E0189
:1038B0000048E801006CDC02000000000102030483
:1038C000E0380008000000201C000000C837000895
:1038D000FC3800081C000020140A0000D83700083B
:1038E00000000000000000000000000000000000D8
:0C38F000000000000000000000093D0086
:04000005080001BD31
:00000001FF
