:020000040800F2
:1000000028090020D1010008AB180008ED160008EF
:10001000A9180008E5020008EB280008000000000D
:10002000000000000000000000000000091C0008A3
:10003000E702000800000000CD1800080B1C0008B3
:10004000EB010008EB010008EB010008EB010008E0
:10005000EB010008EB010008EB010008EB010008D0
:10006000EB010008EB010008EB010008EB010008C0
:10007000EB010008EB010008EB010008EB010008B0
:10008000EB010008EB010008EB010008EB010008A0
:10009000EB010008EB010008EB010008EB01000890
:1000A000EB010008EB010008EB010008EB01000880
:1000B000EB010008EB010008EB010008EB01000870
:1000C000EB010008EB010008EB010008EB01000860
:1000D000EB010008EB010008EB010008EB01000850
:1000E000EB010008EB010008EB010008EB01000840
:1000F000EB010008EB010008EB0100080000000024
:10010000EB010008EB010008EB010008EB0100081F
:10011000EB010008EB010008EB010008EB0100080F
:10012000EB010008EB010008EB010008EB010008FF
:10013000EB010008EB010008EB010008EB010008EF
:10014000EB010008EB010008EB010008EB010008DF
:10015000EB010008EB010008EB010008EB010008CF
:10016000EB010008EB010008EB010008EB010008BF
:10017000EB010008EB010008000000000000000097
:10018000EB010008EB010008EB010008EB0100089F
:10019000EB010008EB010008000000000000000077
:1001A0000000000000000000EB010008EB01000867
:1001B000EB010008EB010008EB010008DFF80CD0B0
:1001C00000F07EF8004800470D29000828090020AB
:1001D0000648804706480047FEE7FEE7FEE7FEE7E1
:1001E000FEE7FEE7FEE7FEE7FEE7FEE7DD1C0008B0
:1001F000BD0100082DE9F05F0546002092469B46B0
:1002000088460646814640241BE02846414647462C
:10021000224600F044F853465A46C01A914110D382
:1002200011461846224600F02BF82D1A67EB0108FC
:100230004F4622460120002100F022F817EB00096A
:100240004E41201EA4F10104DFDC484631462A4617
:10025000434600F000B830BCBDE8C09F40EA01034F
:100260009B0703D009E008C9121F08C0042AFAD26C
:1002700003E011F8013B00F8013B521EF9D2704730
:10028000202A04DB203A00FA02F100207047914056
:10029000C2F1200320FA03F3194390407047202A4B
:1002A00004DB203A21FA02F00021704721FA02F320
:1002B000D040C2F120029140084319467047000027
:1002C000064C074D06E0E06840F0010394E80700A3
:1002D00098471034AC42F6D3FFF774FFA829000802
:1002E000C8290008FEE7704770B5044600F0F2F830
:1002F0000546601C00D0641C00F0ECF8401BA042D6
:10030000FAD370BD2DE9F84FDFF888B100234FF024
:10031000010C4FF0030A4FF00F090BF1040EB1E08E
:100320000CFA03F632406FD04C68022C01D0122C2C
:1003300011D1DC0800EB84073C6A5D07ED0E09FA79
:1003400005F824EA0804D1F8108008FA05F848EA0C
:100350000408C7F8208007685D0091F804800AFA55
:1003600005F408F00308A74308FA05F848EA070867
:10037000C0F800804F68012F05D0022F03D0112F45
:1003800001D0122F10D1D0F80880CF6828EA0408D5
:10039000AF4047EA080787604768B7430E79C6F35E
:1003A00000169E403E434660C668A6438C68AC403B
:1003B0003443C4604C68E40063D5374C256E45F087
:1003C00001052566246E23F0030504F00104009462
:1003D000324C2F19BD689C07260F09FA06F4A54375
:1003E000B0F1904F04D02E4CA04203D1012421E063
:1003F00000241FE02B4CA04201D102241AE02A4C19
:10040000A04202D1032415E03BE0284CA04201D1D8
:1004100004240FE0264CA04201D105240AE0254C1B
:10042000A04201D1062405E0234CA04201D10724BB
:1004300000E00824B4402C43BC60DBF800405D467B
:100440004E689443F60300D514432C60DEF8004058
:1004500075464E689443B60300D514432C600D4D89
:1004600008352C684E689443F60200D514432C607E
:10047000084D0C352C684E689443B60200D51443E1
:100480002C605B1C0A6832FA03F47FF449AF00F079
:1004900015B80000000401400010024000000140B7
:1004A0000004004800080048000C00480010004804
:1004B0000014004800180048001C004818BCBDE8A3
:1004C000E08F42694A40426170470AB181617047DA
:1004D00081627047014800687047000010000020EA
:1004E00002480168491C01607047000010000020AC
:1004F00010B50024032000F083F8002000F008F875
:1005000008B1012401E000F01BF8204610BD0000F6
:1005100070B5054609484FF47A7100240068B0FBB5
:10052000F1F000F092FF08B1012404E00022294616
:10053000501E00F045F8204670BD00001400002059
:100540001E4808B5016E41F001010166016E01F01F
:1005500001010091816D41F080518165806D00F055
:1005600080500090032000F04BF8002211466FF0FD
:100570000B0000F025F8002211466FF00A0000F091
:100580001FF8002211466FF0090000F019F8002250
:100590001146501F00F014F800221146101F00F001
:1005A0000FF800221146901E00F00AF80022BDE864
:1005B00008401146501E00F003B800000010024031
:1005C000F0B40E4B1B680C46C3F30223C3F10705BE
:1005D000042D00D90425191D072901D2002300E0AC
:1005E000DB1E012606FA05F1491E214099409E4076
:1005F000761E16403143F0BC01F058B90CED00E016
:10060000064900F0070208684FF6FF03184040EA69
:100610000220034A10430860704700000CED00E020
:100620000000FA0501680122C0F80024886B40F43C
:10063000003088630020704701220168C0F8FC2365
:10064000002280F8F423886940F000608861486DDA
:10065000024A104348650020704700000300001064
:10066000F0B58BB0040004D094F8BD03002518B198
:1006700007E001200BB0F0BD84F8BC53204600F029
:100680005BF8032084F8BD03206802F0EFF804F162
:10069000100128220F466846FFF7E0FD94E80F009E
:1006A00001F0F6FF0021206802F008F90020012681
:1006B000C0EBC00104EB810181F83D6001F83C0F03
:1006C000C880CD708D60401CCD60C0B24D610F28D8
:1006D000EED30020C0EBC00104EB810181F8FD5195
:1006E00081F8FC0181F8FF51C1F80452401CC1F8A7
:1006F0000852C0B2C1F810520F28EBD32822394655
:100700006846FFF7ABFD94E80F0002F013F884F899
:10071000385084F8BD63606A012802D12046FFF793
:100720008BFFA06A012802D12046FFF77BFF2068DB
:1007300001F0F4FF00209DE730B5006887B0B0F10C
:10074000A04F33D14FF4E850009002200024CDE9AF
:100750000104032003900A204FF09045049069465D
:100760002846FFF7CFFD4FF40070CDE9000469463D
:1007700028460294FFF7C6FD0F4CE06C40F4805011
:10078000E064E06C00F480500590A06DC0000FD4D0
:10079000A06D40F08050A065A06D00F080500590E5
:1007A00000F072F8A06D20F08050A06507B030BD59
:1007B00000F06AF8FAE70000001002402B492C4BC9
:1007C0000A6832214A432B4940B1B0F5007F0868DE
:1007D00029D020F4C06040F480602CE00868C0F3A9
:1007E0004120022804D051F8800F20F4807022E0CC
:1007F000D1F8800020F48070C1F88000086820F4EF
:10080000C06040F400700860B2FBF3F0401C00E0F0
:10081000401E4A69520501D50028F9D148694005B2
:100820000AD503207047C0F34120022806D051F8B2
:10083000800F40F48070086000207047D1F880007D
:1008400040F48070C1F88000086820F4C06040F473
:1008500000700860B2FBF3F0401C00E0401E4A69E3
:100860005205DBD50028F9D1D8E70000140000209C
:1008700040420F00007000400248416841F400719E
:1008800041607047007000400248416841F4806157
:10089000416070470070004008480168C1F3412181
:1008A000022906D0D0F88000C00505D54FF40070AD
:1008B00070474FF480607047002070470070004020
:1008C0000248016841F48071016070470070004087
:1008D0000248016841F004010160704700100240C5
:1008E0002DE9F84F0446002700883E46010504F133
:1008F0002008FE4D1ED5E06E40280AD003DC68B10A
:10090000202804D10FE0602821D080281FD00127A3
:100910000FE0E86840F48030E86018E00021201D16
:1009200000F0D6FF03E00021404601F065F8070023
:100930000DD03E462088C0042BD5206FB0F5007F37
:1009400016D00DDCC8B1B0F5807F0FD11AE0D5F814
:100950009C00E16E20F0E0000843C5F89C00E9E748
:10096000B0F5407F13D0B0F5806F10D001270FE0B5
:10097000E86840F48030E86009E00021201D00F0C4
:10098000A7FF03E00021404601F036F80746F7B123
:100990003E46206880033AD5A86D4FF00008C0009D
:1009A00009D4A86D40F08050A865A86D4FF00108EB
:1009B00000F080500090DFF838A3DAF8001041F41E
:1009C0008071CAF80010FFF785FD814610E0D5F868
:1009D0009C00216F20F4E0600843C5F89C00D8E734
:1009E000FFF778FDA0EB0900022801D9032705E0F5
:1009F000DAF80000C005F3D5002F7CD04FEA0706D7
:100A0000B8F1000F03D0A86D20F08050A8652078C1
:100A1000C00707D0D5F88800E16B20F00300084339
:100A2000C5F888002078800707D5D5F88800216CA4
:100A300020F00C000843C5F888002078400707D54F
:100A4000D5F88800616C20F030000843C5F88800B4
:100A50002078000707D5D5F88800A16C20F0C000E9
:100A60000843C5F888002078C00607D5D5F8880067
:100A7000E16C20F440700843C5F8880020788006B7
:100A800007D5D5F88800216D20F440600843C5F8EB
:100A900088002088800507D5D5F88800616E20F48D
:100AA00040200843C5F888002088400507D5D5F8C0
:100AB0008800A16E20F440100843C5F88800207813
:100AC000400607D5D5F88800616D20F440500843F2
:100AD000C5F888002078000607D5D5F88800A16DF4
:100AE00020F440400843C5F888002088C00509D597
:100AF000D5F8880000E027E0E16D20F4403008439D
:100B0000C5F888002068C00207D5D5F89C00216E82
:100B100020F003000843C5F89C0020884FF00067D0
:100B200080044FF0806850D5D5F88800616F20F0C0
:100B300040600843C5F88800606FB8423DD1E8685E
:100B400040F48010E86040E0D5F8900010F4407068
:100B500015D0D4F89010814211D0D5F89000D5F876
:100B6000901020F4407041F48031C5F89010D5F811
:100B7000901021F48031C5F89010C5F89000C0079E
:100B800011D0FFF7A7FC074641F2883907E000BF04
:100B9000FFF7A0FCC11B494501D9032630E7D5F872
:100BA00090008007F4D5D5F89000D4F8901020F488
:100BB00040700843C5F8900022E7404505D1012167
:100BC000201D00F085FE00B10646206800032DD5EB
:100BD000A06F4FF480418842D5F89C0004D140F4C6
:100BE0008040C5F89C000BE020F48040C5F89C00D4
:100BF000D5F88800A26F20F040601043C5F8880047
:100C0000A06FB84203D1E86840F4801004E0884245
:100C100004D1E86840F48030E86007E0404505D141
:100C20000121201D00F054FE00B10646206840035B
:100C300017D5D5F88800E16F20F040600843C5F86B
:100C40008800E06FB84204D1E86840F48010E860A2
:100C500007E0404505D10121201D00F039FE00B11B
:100C600006462088400413D5D5F88800D4F88010B3
:100C700020F040500843C5F88800D4F88000B0F157
:100C8000805F05D10221201D00F022FE00B1064642
:100C90002068C00308D5D5F89C00D4F8841020F053
:100CA00004000843C5F89C002068800208D5D5F8E8
:100CB0009C00D4F8881020F018000843C5F89C0068
:100CC0002068C00110D5D5F89C0054F88C1F20F482
:100CD00040100843C5F89C002068B0F5001F03D100
:100CE000E86840F48010E860304603E000100240FD
:100CF0000070004000F000B818BCBDE8E08F0000B4
:100D00002DE9F0470E4605004FF000077ED0DFF8D2
:100D10005881D8F8000000F00F00B0420CD2D8F88B
:100D2000001021F00F013143C8F80010D8F800007E
:100D300000F00F00B04271D128784C4CC0074BD066
:100D40006868DFF82C9103281ED002282ED00028D6
:100D500020682ED04005002860DA00F0B9F8484538
:100D600006D9A06820F0F00040F08000A060802745
:100D7000A068696820F003000843A060FFF7AAFBA1
:100D8000814641F2883A20E02068800146D500F093
:100D9000C7FE4845ECD9A06810F0F00FE1D02878E4
:100DA0008007E5D5A8680028DBD0E1E7206880034C
:100DB000D1E78007CFE700BFFFF78CFBA0EB09016D
:100DC000514502D90320BDE8F087A068696800F0AA
:100DD0000C00B0EB810FEFD12878800705D5A06813
:100DE000A96820F0F000084304E0802F03D1A06838
:100DF00020F0F000A060D8F80010404601F00F018C
:100E0000B1420DD9016821F00F0100E006E0314345
:100E10000160006800F00F00B04201D00120D2E76D
:100E20002878400705D5A068E96820F4E060084309
:100E3000A0602878000706D5A068296920F46050D2
:100E400040EAC100A06000F043F8A168094AC1F37C
:100E50000311515C01F01F01C84007490860BDE85B
:100E6000F0470020FFF754BB002002400010024072
:100E700000B4C40460290008140000200148006880
:100E80007047000014000020054806490068896882
:100E9000054AC1F30221515C01F01F01C8407047AF
:100EA0001400002000100240A0290008054806494F
:100EB00000688968054AC1F3C221515C01F01F0135
:100EC000C84070471400002000100240A02900080C
:100ED00070B52549002318468A68CC6812F00C02C8
:100EE00004F00306214C4FEA640509D00C2A05D012
:100EF000042A26D0082A00D1284670BD012E10D120
:100F00000B681B0704D4D1F89430C3F3032302E029
:100F10000B68C3F30313164E56F823307AB10C2A2C
:100F2000EBD1C86800F00302C868C0F30310401C8E
:100F3000022A08D0032A09D0B3FBF0F008E01846D3
:100F400070BD204670BDB4FBF0F001E0B5FBF0F0E1
:100F5000CA68C968C2F306225043C1F34161491C03
:100F60004900B0FBF1F070BD001002400024F40015
:100F7000702900082DE9F84305007CD0F84CA068E2
:100F800000F00C06E06800F003072878C00662D580
:100F900076B10C2E01D1012F0AD0A8690028206853
:100FA00078D040F001002060FFF794FA804659E0C5
:100FB0002068800702D5A8690028DED0296A206849
:100FC000000703D5206800F0F00004E0D4F8940096
:100FD000F02202EA1010814216D9084600F0DAFD2C
:100FE000002848D1206840F0080020602068296A65
:100FF00020F0F000084320606068E96920F47F4039
:1010000040EA0120606015E0206840F008002060A0
:101010002068296A20F0F000084320606068E969D0
:1010200020F47F4040EA01206060286A00F0B2FDB1
:101030000028D6D1FFF74CFFA168CA4AC1F30311BB
:10104000515C01F01F01C840C74908600020FFF74C
:101050005FFA00287ED12EE0FFF73CFAA0EB0800F3
:10106000022878D820688007F6D5206840F008006C
:101070002060206801E0BBE00CE0296A20F0F0006D
:10108000084320606068E96920F47F4040EA01205D
:10109000606010E020F001002060FFF71BFA80463E
:1010A00006E000BFFFF716FAA0EB08000228D8D828
:1010B00020688007F6D42878C00740D0082E18D0C2
:1010C0000C2E01D1032F14D06868B0F5803F17D0E3
:1010D000B0F5A02F206817D020F480302060206861
:1010E00020F4802020606868E0B1FFF7F3F98046C3
:1010F00014E02068800322D56868002878D01EE0BC
:10110000206840F48030EDE740F480202060F7E76D
:10111000FFF7E0F9A0EB08006428A2D8206880035C
:10112000F6D50CE0FFF7D6F9804605E0FFF7D2F9D7
:10113000A0EB0800642894D820688003F6D42878AF
:1011400080073BD5042E11D00C2E01D1022F0DD0DB
:10115000E86801E05EE1B8E0002820681ED040F4B5
:1011600080702060FFF7B6F907460CE02068400564
:101170000CD5E8680028C1D008E000BFFFF7AAF945
:10118000C01B022893D820684005F7D56068297CE9
:1011900020F0FE4040EA016060600FE020F48070C3
:1011A0002060FFF797F9074605E000BFFFF792F9C7
:1011B000C01B0228B1D820684005F7D42878000762
:1011C00029D568690028D4F8940012D040F00100B5
:1011D000C4F89400FFF77EF9074604E0FFF77AF9B8
:1011E000C01B022871D8D4F894008007F6D512E00D
:1011F00017E120F00100C4F89400FFF76BF90746EF
:1012000005E000BFFFF766F9C01B02285DD8D4F8DF
:1012100094008007F6D42878400766D5A06D002793
:10122000C00008D4A06D40F08050A065A06D0127DB
:1012300000F0805000904D480168C90512D4016843
:10124000814641F480710160FFF744F9804605E072
:10125000FFF740F9A0EB0800022836D8D9F80000C3
:10126000C005F5D5A868012816D00528D4F8900047
:1012700017D020F00100C4F89000D4F8900020F0BE
:10128000040000BFC4F89000A86841F28839C0B1DA
:10129000FFF720F980460FE0D4F8900040F00100FD
:1012A000F0E740F00400C4F89000F5E7FFF712F90A
:1012B000A0EB0801494508D8D4F890008007F5D57F
:1012C0000EE0FFF707F9804606E07CE0FFF702F941
:1012D000A0EB0801494576D8D4F890008007F5D4F2
:1012E0001FB1A06D20F08050A0652878800628D519
:1012F000686A0028D4F8980012D040F00100C4F8C1
:101300009800FFF7E7F8074605E000BFFFF7E2F8AF
:10131000C01B02287DD8D4F898008007F6D510E0CD
:1013200020F00100C4F89800FFF7D4F8074604E065
:10133000FFF7D0F8C01B02286BD8D4F898008007BC
:10134000F6D4A86AF0B30C2E6BD00228206820F0E7
:10135000807020600CD0206810F0205F47D04AE0F9
:1013600000100240602900081400002000700040B6
:10137000FFF7B0F8064604E0FFF7ACF8801B022840
:1013800047D820688001F7D4286B55F82C1F00013E
:1013900010380843298A244A490802EB4151AA68B7
:1013A00041EA02210843297D4FF07E42490802EBC1
:1013B00041610843297B40EAC160E060206840F059
:1013C000807001E02BE024E02060E06840F0807055
:1013D000E060FFF77FF8054605E000BFFFF77AF809
:1013E000401B022815D820688001F7D517E0E06877
:1013F00020F00300E060E0680C490840E060FFF77F
:1014000069F8054608E000BFFFF764F8401B0228B2
:1014100002D90320BDE8F88320688001F4D40020BD
:10142000F8E70120F6E700000000E0FFFFFFEEFE16
:101430004FF0E0210428086903D020F0040008617F
:10144000704740F00400FAE7704710B5401EB0F155
:10145000807F01D3012010BD4FF0E02460610F2197
:10146000601700F023FA0020A0610720206100200F
:1014700010BD10B5FFF7E8FF10BD90F87C100129F2
:1014800018D0012180F87C10242180F87D1050F8BC
:10149000601B0A680B6823F001030B6022F0005107
:1014A0000022426050F8603C1960202141770277A9
:1014B000104670470220704770B5044690F87C00D3
:1014C00001281DD0012084F87C00242084F87D00B0
:1014D00020680568026822F00102026020688268C4
:1014E00022F060620A438260204600F019FC206806
:1014F0000560202084F87D00002084F87C0070BD09
:10150000022070BD70B5044690F87C0001281DD003
:10151000012084F87C00242084F87D002068056880
:10152000026822F0010202602068826822F06042B4
:101530000A438260204600F0F3FB2068056020200B
:1015400084F87D00002084F87C0070BD022070BD0E
:1015500010B5040003D094F87D0010B107E001201D
:1015600010BD002084F87C00204600F027F82420DD
:1015700084F87D002068016821F0010101602046A7
:1015800000F096FC0128EBD0A06A10B1204600F0D4
:10159000FBFB2068416821F490414160206881682C
:1015A00021F02A0181602068016841F00101016099
:1015B0002046BDE8104000F04BBC000030B51A4D8D
:1015C0000468002119480222032387B0AC4211D1DC
:1015D000C46D44F00104C465C06DCDE9021300F090
:1015E00001000590D801CDE9000208200490694669
:1015F0000F4814E00F4DAC4213D1846D44F48024A5
:101600008465806DCDE9021300F4802005904FF4CD
:101610004070CDE900020720049069460648FEF7B5
:1016200071FE07B030BD0000008000400010024095
:101630000018004800480040000C00482DE9F8431D
:10164000044690F87D001F4616460D4620284BD1D3
:10165000C5B1BEB194F87C00012845D0012004F842
:101660007C0F4FF00008C4F8048021206070FEF762
:1016700031FF24F8286C814624F8266C4FF48056FC
:101680007C3C15E00120BDE8F8838021204600F075
:10169000CCFFD8B9A068B04201D12069C0B115F81B
:1016A000010B21680885B4F85600401EA4F85600C6
:1016B000B4F856004B464FF0000200970028E4D1E2
:1016C0004FF04001204600F0B0FF30B10320DAE7D0
:1016D00035F8020BC0F30800E3E7202084F87D0012
:1016E00084F87C800020CEE70220CCE7FEE70000F3
:1016F000F0B5304C87B0E06C40F00400E064E06C82
:1017000000F004000590E06C40F00200E064E06C42
:1017100000F002000590E06C40F00800E064E06C2E
:1017200000F008000590E06C40F04000E064E06CE0
:1017300000F040000590FFF79FF8E06C40F00100DA
:10174000E064E06C1C4E00F001004FF48145059010
:10175000002229463046FEF7B8FE184F002220210D
:101760003846FEF7B2FE4FF40050009014480024B3
:10177000CDE9010469461348FEF7C4FD0095012533
:10178000CDE90154694630460394FEF7BBFD2020A5
:101790000090CDE90154694638460394FEF7B2FD46
:1017A0004020CDE90004694638460294FEF7AAFDC0
:1017B00007B0F0BD001002400004004800180048C7
:1017C0000000111000080048124810B510490160CF
:1017D0004FF4E1314160002181600C22C160C0E919
:1017E000041281610162416281624166FFF7B0FECD
:1017F00000B1FEE700210748FFF784FE00B1FEE7D5
:1018000000210448FFF758FE002800D0FEE710BD75
:101810000080004018000020154810B513490160F1
:101820004FF4E1314160002181600C22C160C0E9C8
:1018300004128161C161016241628162FFF788FE29
:1018400000B1FEE700210A48FFF75CFE00B1FEE7A9
:1018500000210748FFF730FE00B1FEE70448FFF71C
:101860000CFE002800D0FEE710BD0000004800403C
:101870009C0000200B4810B54FF0A04101600621EC
:10188000416000210222C0E905120122C0E90721BE
:10189000C0E90912C0E90B21FEF7E2FE002800D0E2
:1018A000FEE710BD20010020FEE770470907090E82
:1018B000002806DA00F00F0000F1E02080F8141D87
:1018C000704700F1E02080F8001470477047000076
:1018D0002DE9F041434C05468846E0680026810723
:1018E000286806D0E16801F0030181420FD170B190
:1018F0001AE0012804D0022805D0032807D108E007
:101900002168890701E021684905002907DB0126D4
:1019100064E02168890302D421684903F5E7E1689E
:1019200021F003010143E160206820F08060206025
:10193000FEF7D0FD074604E0FEF7CCFDC01B0228F1
:1019400043D820680001F7D46FF00F00B8F1000F02
:101950001BD0B8F1010F24D0297D4908420502EBC4
:101960004161AA6841EA02216A6800EB0210014362
:1019700020691D4A104001432161206840F08060C9
:101980002060FEF7A7FD074621E0A9682A7B09022F
:1019900041EAC2616A6800EB021001432069134A00
:1019A000E8E7298A124A490802EB4151AA6841EA4C
:1019B00002216A6800EB0210014320690D4AD9E751
:1019C000FEF788FDC01B022801D9032606E0206827
:1019D0000001F5D52069A969084320613046BDE8BA
:1019E000F0810000001002400F80FFF90F80FF0718
:1019F0000000E0FF0F809FFF2DE9F041434C0546BA
:101A00008846E06800268107286806D0E16801F072
:101A1000030181420FD170B11AE0012804D00228DD
:101A200005D0032807D108E02168890701E0216873
:101A30004905002907DB012664E02168890302D4F7
:101A400021684903F5E7E16821F003010143E16002
:101A5000206820F080502060FEF73CFD074604E03F
:101A6000FEF738FDC01B022843D820688000F7D459
:101A70006FF00F00B8F1000F1BD0B8F1010F24D0A8
:101A8000297D4908420502EB4161AA6841EA022129
:101A90006A6800EB0210014360691D4A104001436F
:101AA0006161206840F080502060FEF713FD07461A
:101AB00021E0A9682A7B090241EAC2616A6800EB59
:101AC000021001436069134AE8E7298A124A49086B
:101AD00002EB4151AA6841EA02216A6800EB021058
:101AE000014360690D4AD9E7FEF7F4FCC01B0228E8
:101AF00001D9032606E020688000F5D56069A96950
:101B0000084360613046BDE8F081000000100240EB
:101B10000F80FFF90F80FF070000E0FF0F809FFF9D
:101B200018480022C16801F0030101290DD10168A4
:101B3000090704D4D0F89410C1F3032102E001682E
:101B4000C1F30311104A52F82120C16801F00303C8
:101B5000C168C1F30311491C022B02D0032B03D12E
:101B600001E00A4A00E00A4AB2FBF1F1C268C0682B
:101B7000C2F306225143C0F34160401C4000B1FB58
:101B8000F0F0704700100240702900080024F400B3
:101B900000127A00F8B51A4D06460024A86DC00060
:101BA00002D5FEF779FE0DE0A86D40F08050A865E3
:101BB000A86D00F080500090FEF76EFEA96D21F038
:101BC0008051A965B0F5007F03D0802E06D3022492
:101BD00007E0802E05D9A02EF9D801E0702E00D1A3
:101BE00001240848016821F00F01214301600068C9
:101BF00000F00F00A04201D00120F8BD0020F8BD88
:101C00000010024000200240704710B5FEF768FC4B
:101C1000BDE81040FFF72DBC70B5BCB00020FEF74A
:101C2000CDFD00B1FEE7FEF74BFE2B4850F8901FAC
:101C300021F01801016014202590602001262D90CC
:101C400000252796CDE92B650224CDE92F463C20BF
:101C5000CDE932043196349425A83594FFF78AF9FA
:101C600000B1FEE70F2036900320CDE937054FF491
:101C70008060CDE93905052136A8FFF741F800B1AC
:101C8000FEE742F22400149500904FF08060119519
:101C90001D90019602961820CDE903044FF48010A0
:101CA000CDE9064005946846FEF71AFE00B1FEE74E
:101CB000FFF7E4F84FF47A71B0FBF1F0FFF7C5FBE2
:101CC0000420FFF7B5FBFEF703FE00221146501E6D
:101CD000FEF776FC3CB070BD001002400D48016874
:101CE00041F4700101600C48016841F0010101609C
:101CF000002181600268094B1A4002608214C260B0
:101D0000026822F48022026081610249C0038039A6
:101D10000860704788ED00E000100240FFFFF6EA1F
:101D20003FB515A2D2E90012CDE9001214A2D2E902
:101D30000012CDE90212416EC9B102689168926841
:101D4000C1F34261520F1DF80240E406250E02ACB9
:101D5000A25CB5FBF2F2A0F86A201DF80120615CDC
:101D6000D206120EB2FBF1F1A0F868103FBD0121BE
:101D7000A0F86A10F8E70000010101030701000064
:101D8000080402040801000090F82810C90706D0D2
:101D900001684A68C36A22F400321A434A6090F824
:101DA0002810890706D501684A68036B22F480323F
:101DB0001A434A6090F82810490706D501684A6816
:101DC000436B22F480221A434A6090F828100907D6
:101DD00006D501684A68836B22F400421A434A60C0
:101DE00090F82810C90606D501688A68C36B22F4EA
:101DF00080521A438A6090F82810890606D5016837
:101E00008A68036C22F400521A438A6090F8281002
:101E1000490611D501684A68436C22F480121A43BE
:101E20004A60416CB1F5801F06D101684A68836C35
:101E300022F4C0021A434A6090F82810090606D519
:101E400001684A68C06C22F4002202434A6070476D
:101E5000F8B500260446C0F88060FEF73BFB054657
:101E6000206800686FF07E47000708D52B460022E7
:101E70004FF400112046009700F0D7FB60B92068AE
:101E8000006840070AD52B4600224FF48001204607
:101E9000009700F0CAFB08B10320F8BD202084F8A9
:101EA0007D0084F87E0084F87C600020F8BD00008E
:101EB0002DE9F05F0446016880682369E6691843EC
:101EC0006369102533431843636E00270343F54AC3
:101ED0000868F54E30401843086020684168E368A0
:101EE00021F44051194341602168A069914201D019
:101EF000236A18438B68ED4E334003438B602068A0
:101F0000C16A636A21F00F011943C162E949E84BD4
:101F100020688E1598420DD1D1F8881011F0030178
:101F200006D0012959D0022955D0032958D156E0AD
:101F3000012555E0E04B98420BD1D1F8881011F003
:101F40000C0146D0042948D0082944D00C2947D197
:101F500045E0DA4B98420BD1D1F8881011F03001EE
:101F600037D0102939D0202935D0302938D136E062
:101F7000D34B98420BD1D1F8881011F0C00128D072
:101F800040292AD0802926D0C02929D127E0CD4B4D
:101F900098420DD1D1F8881011F4407119D0B14296
:101FA0001BD0B1F5007F16D0B1F5407F18D116E0F7
:101FB000904215D1D1F8881011F4406109D0B1F5E3
:101FC000806F0AD0B1F5006F05D0B1F5406F07D131
:101FD00005E0002504E0022502E0042500E00825D4
:101FE000DFF8E4A24FF000094FF4004B90426ED1AD
:101FF00035B1022D21D0042D51D0082D68D16EE0CD
:10200000FEF742FF4DE0012851D0022851D00328AD
:1020100051D0042851D0052851D0062851D0072886
:1020200051D0082851D0092853D00A2853D00B2862
:1020300053D03AE0B1FBF0F06CE0606AA8B101283F
:1020400017D0022817D0032817D0042817D0052846
:1020500017D0062817D0072817D0082817D0092826
:1020600017D00A2817D00B2817D00120BAFBF0F0A0
:1020700050E00220FAE70420F8E70620F6E70820FF
:10208000F4E70A20F2E70C20F0E71020EEE720202A
:10209000ECE74020EAE78020E8E73046E6E7FEF795
:1020A00017FF0146606A0028ADD10120C2E7022077
:1020B000C0E70420BEE70620BCE70820BAE70A20F4
:1020C000B8E70C20B6E71020B4E72020B2E732E1F1
:1020D00042E04020AEE78020ACE73046AAE7606AE5
:1020E000A8B1012822D0022822D0032822D0042817
:1020F00022D0052822D0062822D0072822D008285E
:1021000022D0092822D00A2822D00B2822D0012050
:10211000BBFBF0F0002820D06168884601EB41014C
:10212000814219D8B0EB083F16D817E00220EFE73C
:102130000420EDE70620EBE70820E9E70A20E7E7BF
:102140000C20E5E71020E3E72020E1E74020DFE76F
:102150008020DDE73046DBE7012710E27DB3022D6A
:1021600075D0042D74D0082DF6D1606AA8B101286D
:102170006FD002286ED003286DD004286CD00528BB
:102180006BD006286AD0072869D0082868D00928AB
:1021900067D00A287ED00B2800D0012632464D4653
:1021A000002358460021FEF725F8090241EA106194
:1021B00002024FEA58001018694142463EE0FFE72C
:1021C000FEF762FE84464D4649469AE0012815D046
:1021D000022815D0032815D0042815D0052815D0BD
:1021E000062815D0072815D0082815D0092815D09D
:1021F0000A2815D00B2814D0012612E0022610E080
:1022000004260EE006260CE008260AE00A2608E06E
:102210000C2606E0102604E0202602E0402600E01E
:102220008026324600236046FDF7E4FF090262681B
:1022300041EA106103025008181869410023FDF7B4
:10224000D9FF224AA0F5407191426FD984E709E095
:1022500052E05BE05CE05DE05EE05FE060E061E09A
:1022600062E064E0606AB8B1012831D0022831D060
:10227000032831D0042831D0052831D0062831D0A8
:10228000072831D0082831D0092831D00A2831D088
:102290000B2800E04DE000D0012632464D460023D9
:1022A00050467FE700800040F369FFCFFFF4FF1145
:1022B0000038014000100240004400400048004047
:1022C000004C0040005000400024F400FFFC0F00D0
:1022D0000226E2E70426E0E70626DEE70826DCE73A
:1022E0000A26DAE70C26D8E71026D6E72026D4E718
:1022F0004026D2E78026D0E7FEF7EAFD4D46494664
:102300008446606A00283FF477AF5FE7022645E71E
:10231000042643E7062641E708263FE70A263DE76D
:102320000C263BE7102639E7202637E725E1402633
:1023300034E7802632E7E0694FF6EF7858456ED1F2
:10234000092D83D2DFE805F006093C058005050567
:10235000830001E7FEF798FD01E0FEF7A7FD0146C7
:10236000606AA8B1012815D0022815D0032815D01D
:10237000042815D0052815D0062815D0072815D013
:10238000082815D0092815D00A2815D00B2814D0F4
:10239000012612E0022610E004260EE006260CE0DC
:1023A00008260AE00A2608E00C2606E0102604E0CB
:1023B000202602E0402600E08026B1FBF6F01AE07D
:1023C000606AA8B101282BD002282BD003282BD07B
:1023D00004282BD005282BD006282BD007282BD05B
:1023E00008282BD009282BD00A282BD00B2800D066
:1023F0000126BAFBF6F04100606801EB5001B1FB29
:10240000F0F080B2A0F110014145A2D84FF6F07172
:102410000140C0F3420001432068C160AFE046E0E4
:102420000226E6E70426E4E70626E2E70826E0E7D8
:102430000A26DEE70C26DCE71026DAE72026D8E7B6
:102440004026D6E78026D4E7FEF742FD87E7606A9C
:10245000A8B1012817D0022817D0032817D00428C4
:1024600017D0052817D0062817D0072817D0082816
:1024700017D0092817D00A2817D00B2800D001261A
:10248000BBFBF6F0B7E70226FAE70426F8E70626D4
:10249000F6E70826F4E70A26F2E70C26F0E710260E
:1024A000EEE72026ECE74026EAE78026E8E7092D5C
:1024B000BFF4CCAEDFE805F006093C058305050551
:1024C000860049E6FEF7E0FC01E0FEF7EFFC01467E
:1024D000606AA8B1012815D0022815D0032815D0AC
:1024E000042815D0052815D0062815D0072815D0A2
:1024F000082815D0092815D00A2815D00B2814D083
:10250000012612E0022610E004260EE006260CE06A
:1025100008260AE00A2608E00C2606E0102604E059
:10252000202602E0402600E08026B1FBF6F11AE00A
:10253000606AA8B101282ED002282ED003282ED000
:1025400004282ED005282ED006282ED007282ED0DD
:1025500008282ED009282ED00A282ED00B2800D0EB
:102560000126BAFBF6F1606801EB5001B1FBF0F017
:1025700080B2A0F110014145A3D82168C8600120B4
:10258000A4F86A0024F8680F3846C4F80490C4F828
:10259000089000F047B80226E3E70426E1E70626A4
:1025A000DFE70826DDE70A26DBE70C26D9E7102659
:1025B000D7E72026D5E74026D3E78026D1E7FEF7E8
:1025C00087FC84E7606AA8B1012817D0022817D0D9
:1025D000032817D0042817D0052817D0062817D0AD
:1025E000072817D0082817D0092817D00A2817D08D
:1025F0000B2800D00126BBFBF6F1B4E70226FAE770
:102600000426F8E70626F6E70826F4E70A26F2E7A6
:102610000C26F0E71026EEE72026ECE74026EAE756
:102620008026E8E730BCBDE8C09F2DE9F041984620
:1026300017460E460446069D1DE0681C1BD02DB1B2
:10264000FDF748FFA0EB0800A84214D920680168F4
:1026500021F4D07101602068816821F0010181605E
:10266000202084F87D0084F87E00002084F87C001F
:102670000320BDE8F0812068C06936EA000004D07C
:102680000020B842D9D00020F3E70120F9E700008C
:1026900010B5044604990B9801290BD0E06840F06E
:1026A0004000E060204600F01DF84FF48030A06349
:1026B000002010BDA16B21F48031A163E168084ABC
:1026C0001140E160E16821F44011E160012803D18B
:1026D000E06840F48010E060204600F003F8E7E78F
:1026E000BFFFBDFF01220C4902E0521C8A420BD8F9
:1026F0000369002BF9DA026942F00102026101224A
:1027000004E0521C8A4201D9032070470369DB07A9
:10271000F7D1002070470000400D030010B5D0F83D
:10272000041841F00201C0F804180320FDF7DCFD95
:10273000002010BD2DE9F04304460020DDF828906C
:10274000DDF838700E46054604EB8001C1F80451EF
:10275000401C0F28F8D3A06B40F400112046A16361
:1027600067B9806B20F40011A163206840F040013C
:102770002160206840F0800120462160C0F8005EA2
:10278000D0F80018C0F80018D0F8001841F0030184
:10279000C0F80018102100F07FF8204600F06CF817
:1027A000C4F81058C4F81458C4F81C5800204FF04E
:1027B00000624FF090484FF67F3314E004EB401175
:1027C000D1F800C9BCF1000F06DA10B1C1F80089D8
:1027D00004E0C4F8002901E0C1F80059C1F810591B
:1027E000C1F80839401C8642E8D8002015E000BF37
:1027F00004EB4011D1F800CBBCF1000F06DA10B1A8
:10280000C1F8008B04E0C4F8002B01E0C1F8005BC4
:10281000C1F8105BC1F8083B401C8642E8D8D4F8E8
:10282000100820F48071C4F81018A5616FF0804082
:102830006061A06940F01000A061A06909490843E7
:10284000A061B9F1000F03D0A06940F00800A061B9
:10285000012F03D1A06904490843A0610020BDE80D
:10286000F083000000383C8004000040816821F0C3
:102870000101816000207047002110220261054A99
:10288000491C914201D9032070470369DB06F7D444
:1028900000207047400D03000022202343EA8111ED
:1028A00001610549521C8A4201D90320704703691E
:1028B0009B06F7D400207047400D030010B5C26896
:1028C00022F0C042C260012902D029B1012010BD0E
:1028D000C16841F0005102E0C16841F08041C1602F
:1028E0003220FDF701FD002010BDFEE702E008C820
:1028F000121F08C1002AFAD170477047002001E07A
:1029000001C1121F002AFBD170470000FDF7F0FD46
:10291000FFF782F9FEF7ECFEFEF7ACFFFEF77CFF57
:10292000FEF752FF0B4C4FF480454FF47A7680212E
:102930002046FDF7C6FD29462046FDF7C2FD0A23C5
:102940000D2205490548FEF779FE3046FDF7CCFC1F
:10295000EDE70000000400480000002018000020FF
:10296000000000000000000001020304060708093F
:10297000A0860100400D0300801A060000350C00FF
:1029800040420F0080841E0000093D0000127A00C2
:102990000024F40000366E010048E801006CDC02FF
:1029A0000000000001020304C82900080000002004
:1029B00018000000EC280008E0290008180000209A
:1029C00010090000FC28000850726F766120554104
:1029D0005254310D0A0000000000000000093D00C3
:04000005080001BD31
:00000001FF
